:1000000000308A002D280000393084008313000856
:10001000031918280130F800F701F70B0D28F80B29
:100020000C284A30F700F70B13281628800B0A28F3
:1000300008001230BA02031C2C283A3084008313C3
:10004000FC3080050310800C800C000803192C285C
:100050002A280000800B2928080003081F39830084
:10006000FF30A00020132008831687008312071793
:10007000193083169900A6309800903083129800AA
:10008000A401A301A201A101A801A701A601A50144
:10009000AC01AB01AA01A901B001AF01AE01AD01F4
:1000A000B201B101B401B301B501B60183161F1449
:1000B0009F141F159F1107309C00831383128C1E01
:1000C000852C8C1E61281A08B7003708613C031D77
:1000D0009128B8013808633C031C912883168610C8
:1000E000831286148316061083120610201020082F
:1000F00083168700831207140130B90004200330EF
:10010000B900F730BA001920B90B81282010200857
:1001100083168700831207101030B9000420B80A34
:100120006A283708653C031DB728B8013808633CC6
:10013000031CB728831686108312861083160610B8
:1001400083120614201020088316870083120714D8
:100150007B30F700F70BAA282010200883168700B1
:10016000831207101030B9000420B80A9628370807
:10017000693C031DE328B8013808633C031CE328ED
:1001800083168611831286158316061183120611B3
:10019000A010200883168700831287140130B9004D
:1001A00004200330B900F730BA001920B90BD32866
:1001B000A010200883168700831287101030B90022
:1001C0000420B80ABC2837086F3C031D0929B80170
:1001D0003808633C031C0929831686118312861193
:1001E0008316061183120615A010200883168700B7
:1001F000831287147B30F700F70BFC28A01020082F
:1002000083168700831287101030B9000420B80AC3
:10021000E8283708753C031D3529B8013808633CC8
:10022000031C35298316861283128616831606123E
:1002300083120612201120088316870083120715E7
:100240000130B90004200330B900F730BA0019209A
:10025000B90B252920112008831687008312071166
:100260001030B9000420B80A0E293708623C031D7B
:100270005B29B8013808633C031C5B29831686128E
:100280008312861283160612831206162011200886
:1002900083168700831207157B30F700F70B4E2972
:1002A0002011200883168700831207111030B9002F
:1002B0000420B80A3A293708633C031D8729B8018E
:1002C0003808633C031C8729831605108312051424
:1002D0008316061383120613A011200883168700C5
:1002E000831287150130B90004200330B900F730BC
:1002F000BA001920B90B7729A011200883168700AE
:10030000831287111030B9000420B80A6029370819
:10031000643C031DAD29B8013808633C031CAD29BA
:100320008316051083120510831606138312061711
:10033000A011200883168700831287157B30F700F1
:10034000F70BA029A01120088316870083128711BC
:100350001030B9000420B80A8C293708673C031D07
:10036000D929B8013808633C031CD9298316051123
:10037000831205158316851083128510201220081C
:1003800083168700831207160130B900042003305A
:10039000B900F730BA001920B90BC929201220087A
:1003A00083168700831207121030B9000420B80AA0
:1003B000B2293708663C031DFF29B8013808633CA1
:1003C000031CFF298316051183120511831685105E
:1003D00083128514201220088316870083120716C3
:1003E0007B30F700F70BF2292012200883168700D4
:1003F000831207121030B9000420B80ADE2937082A
:10040000683C031D2B2AB8013808633C031C2B2AC7
:100410008316081083120814831685118312851120
:10042000A012200883168700831287160130B900B6
:1004300004200330B900F730BA001920B90B1B2A89
:10044000A012200883168700831287121030B9008B
:100450000420B80A042A37086A3C031D512AB8014F
:100460003808633C031C512A8316081083120810B5
:100470008316851183128515A01220088316870024
:10048000831287167B30F700F70B442AA01220084E
:1004900083168700831287121030B9000420B80A2F
:1004A000302A37086B3C031D792AB8013808633CB1
:1004B000031C792A831609108312091483168512E6
:1004C0008312851283168613831286170130B900B2
:1004D00004200330B900F730BA001920B90B6B2A99
:1004E00083168613831286131030B9000420B80ACD
:1004F000562A37086C3C031D9B2AB8013808633C18
:10050000031C9B2A83160910831209108316851277
:100510008312851683168613831286177B30F700A5
:10052000F70B902A83168613831286131030B900B6
:100530000420B80A7E2A37086D3C031D5F2BB801E2
:100540003808633C031C5F2B8316091083120910C3
:1005500083168512831285168316861383128617D7
:100560007B30F700F70BB22A8316861383128613AB
:100570001030B9000420831686108312861083166B
:100580000610831206142010200883168700831299
:1005900007147B30F700F70BCB2A201020088316B6
:1005A0008700831207101030B900042083168611CB
:1005B000831286118316061183120615A0102008D7
:1005C00083168700831287147B30F700F70BE62A27
:1005D000A010200883168700831287101030B900FE
:1005E0000420831686128312861283160612831243
:1005F00006162011200883168700831207157B300A
:10060000F700F70B012B20112008831687008312B7
:1006100007111030B900042083160510831205104D
:100620008316061383120617A0112008831687006D
:10063000831287157B30F700F70B1C2BA0112008C5
:1006400083168700831287111030B90004208316A7
:10065000051183120511831685108312851420124B
:10066000200883168700831207167B30F700F70BEC
:10067000372B2012200883168700831207121030B0
:10068000B900042083160810831208108316851100
:1006900083128515A01220088316870083128716FF
:1006A0007B30F700F70B522BA0122008831687002F
:1006B000831287121030B9000420B80AA02A370824
:1006C0006E3C031D4D2CB8013808633C031C4D2CB7
:1006D0008316861083128614831606108312061062
:1006E0002010200883168700831207140130B900F8
:1006F00004200330B900F730BA001920B90B7B2B66
:100700002010200883168700831207101030B900CC
:100710000420831686118312861583160611831210
:100720000611A01020088316870083128714013059
:10073000B90004200330B900F730BA001920B90B12
:100740009C2BA0102008831687008312871010307E
:10075000B9000420831686128312861683160612A9
:1007600083120612201120088316870083120715B2
:100770000130B90004200330B900F730BA00192065
:10078000B90BBD2B20112008831687008312071197
:100790001030B90004208316051083120514831647
:1007A000061383120613A0112008831687008312F4
:1007B00087150130B90004200330B900F730BA00C2
:1007C0001920B90BDE2BA011200883168700831295
:1007D00087111030B9000420831605118312051506
:1007E0008316851083128510201220088316870037
:1007F000831207160130B90004200330B900F73026
:10080000BA001920B90BFF2B20122008831687008D
:10081000831207121030B9000420831608108312C7
:1008200008148316851183128511A01220088316DF
:100830008700831287160130B90004200330B90005
:10084000F730BA001920B90B202CA012200883160B
:100850008700831287121030B90004208316091014
:100860008312091483168512831285128316861348
:10087000831286170130B90004200330B900F73025
:10088000BA001920B90B3F2C8316861383128613E6
:100890001030B9000420B80A642B3708783C031DD7
:1008A000692C83160810831208148316881083128B
:1008B0008814831608118312081583168811831271
:1008C00088158316861383128617831606138312E0
:1008D000061337087A3C031D852C831608108312F3
:1008E000081083168810831288108316081183124B
:1008F00008118316881183128811831686138312B8
:0E090000861383160613831206175F28630002
:02400E00713F00
:00000001FF
;PIC16F877A
;CRC=507E  CREATED="26-nov.-20 23:43"
