:1000000008308A0000280000D4326D383A10000011
:100010002E002010201000000C244F264110D62462
:10002000D32641290001C2244527D622CE24C42745
:1000300000018C24EE33F232F3307210EC34ED34E4
:10004000F43273000A2AED346E1D20002E008C2439
:10005000EE33F232F3307210EC34ED34F4327300DC
:100060000A2AED30781D00012E008C3669373D00DC
:100070002E00ED30F81E00012E00C230EA370001DC
:10008000E539F43000014136F43700010C26CF2960
:100090002026C926492AC52920274F00C422C2226A
:1000A0004E10D3225210C923D5204C008C24CE23CD
:1000B000D222D3222022412ACF290001D620CC24CB
:1000C000C4275310C4222027D522D62700010C2A8A
:1000D000CD346E10CE27202245214510D322520068
:1000E000CD20D9275210D12A4510D426613C0001D9
:1000F0008C24CE23D222D3222022412ACF290001D0
:10010000D620CC24C4275310C4222027D522D6279A
:100110000000463084008313000803199D28013035
:10012000F800F701F70B9228F80B91284A30F700F6
:10013000F70B98289B28800B8F2808004C0EF0396D
:10014000F7000F3008057704880000000814A8287D
:10015000081008000808F700080E0F39F80008001A
:100160008316081088100811831288100F30831628
:100170000805F038880083120815000008140000F4
:10018000AA207808CC000810000008140000AA205B
:100190007808CB0008100F308316080588008312FA
:1001A0004C0EF700F030F70577084B04F80078089C
:1001B000CB00CB1BB628491C8810491888140000B6
:1001C0000811000008104A0ECB000F30CB054B0879
:1001D000CC009E204A080F39CB00CC009E2008009E
:1001E0002830C2000C30C3000130C4000630C50006
:1001F0000810881008110F308316080588000810B1
:10020000881008110F308312C60089200130C10008
:100210004108033C031C14290330CC009E20053008
:10022000C6008920C10A08290230CC009E20053072
:10023000C6008920C1014108033C031C2B29423020
:100240004107840083130008C600C9014608CA009C
:10025000B020C10A1B298A150A12182883161F13F9
:1002600083121F179F1783169F1783121F1483165D
:100270001F109F141F159F15FF3085000030F800D8
:1002800083121F08C73978049F000330F700F70B6B
:1002900047298A150A121B28460B4F29522940303C
:1002A000C7005329C70101304502C70747088038F6
:1002B000C800C9014808CA00B02008004408073A2D
:1002C00003196C290B3A03197129063A0319792984
:1002D000023A03197F2984290130C500C6004C2148
:1002E0008929C9010130CA00B0200230C600892026
:1002F00089290130C5000230C6004C218929C90175
:100300001030CA00B02089290130C9004408CA0051
:10031000B02008000B08C1008B13831603178C173D
:100320000C140000000083120313C11B8B1703176A
:100330000C087F390319DE290313C10003170D08C8
:100340000313C20003170F080313C3004108C400BE
:100350005E21420803178D000313430803178F0023
:1003600003130B08C4008B13831603178C170C148C
:100370000000000083120313C41B8B1703170C0D1E
:100380000E0D7F390319DE290313C10003170D0871
:100390000313C20003170F080313C3004108C4006E
:1003A0005E21420803178D000313430803178F00D3
:1003B0008D0A03198F0A03138A29031703130800F0
:1003C0002510C101EF30A1000430A200A2080319DA
:1003D000062A2518062AF730A000210886000608FC
:1003E000F038A4000430A300A3080319022A20084F
:1003F0002402031DFD292514022AC10A0314A00C9E
:10040000A303F4290314A10DA203E6294108F8006F
:1004100008002C08F03E03185B2A103E632A313096
:10042000AA000130AD00A5145B2A3230AA000230C8
:10043000AD00A5145B2A3330AA000330AD00A5142B
:100440005B2A4130AA005B2A3630AA000630AD0094
:10045000A5145B2A3530AA000530AD00A5145B2A2F
:100460003430AA000430AD00A5145B2A4230AA0043
:100470005B2A3730AA000730AD00A5145B2A38305C
:10048000AA000830AD00A5145B2A3930AA00093053
:10049000AD00A5145B2A4330AA005B2A7830AA007D
:1004A0005B2A3030AA00AD01A5145B2A5830AA009F
:1004B0005B2A4430AA002C08103C0319622A9630AB
:1004C000C600892008000A108A140A1182070F2A20
:1004D000152A1B2A212A242A2A2A302A362A392A8E
:1004E0003F2A452A4B2A4E2A512A562A592A103089
:1004F000C500F701FA01C20CC10C031C852A430890
:10050000F7070318FA0A4408FA07FA0CF70CF90C73
:10051000F80CC50B7B2A0800F701F801430803100B
:100520004418F707F70CF80CC418F707F70CF80C89
:100530004419F707F70CF80CC419F707F70CF80C77
:10054000441AF707F70CF80CC41AF707F70CF80C65
:10055000441BF707F70CF80CC41BF707F70CF80C53
:10056000080049080319212BD1004D080319212B3C
:10057000D1070318C22A7F30D102031C212B031993
:10058000212BC62A8130D1070318212B5108F700EF
:10059000F801F901FA014A08D500D5174B08D40033
:1005A0004C08D3001830D100D201531CEF2A500858
:1005B000FA07031CE12AF90A031DE12AF80A0319C4
:1005C000D2174F08F907031CE82AF80A0319D217B3
:1005D0004E08CB00CB174B08F8070318D217D20DE3
:1005E000F80CF90CFA0CD50CD40CD30C0310D10B6D
:1005F000D42A0130F7070318212BF81B062BD50D41
:10060000FA0DF90DF80DF7030319212BD51F172B40
:10061000FA0A031D172BF90A031D172BF80A031DED
:10062000172BF80CF90CFA0CF70A0319212B4A08BE
:10063000D2004E08D206D21F1F2BF817252BF81315
:10064000252BF701F801F901FA010800F801F90179
:10065000F701FA014E08031D302B4D0803194A2BF0
:100660001030CF000310CB0DCC0DF70DFA0D4E0856
:100670007A02031D3D2B4D087702031C462B4D08C3
:10068000F702031CFA034E08FA020314F80DF90DE1
:10069000CF0B322B0800C401C3013108C20030085F
:1006A000C1004408C8004308C7004208C60041080A
:1006B000C500B630F700FA01F901F8014508460413
:1006C00047044804031D662BF701732B0310F81B26
:1006D000722BC50DC60DC70DC80DFA0DF90DF80D1D
:1006E000F70B662BF8137A08CC007908CB00780852
:1006F000CA007708C900D001CF012030CE00813078
:10070000CD00B1227A08C8007908C7007808C60071
:100710007708C5004808CC004708CB004608CA0047
:100720004508C900D001C030CF007F30CE008830EE
:10073000CD00490803195E2CD5004D0803195E2C25
:10074000D502031CA82B7F30D50703185E2CAE2BD7
:100750008130D502031C5E2C03195E2C5508F7006E
:10076000F801F901FA01D4014A08D300D3174B0864
:10077000D2004C08D1001930D5005008D10203181E
:10078000D12B0130D2020318D12BD3020318D12B65
:10079000D4020318D12BD40AD30AD20A5008D107A5
:1007A000032C4F08D2020318EC2B0130D30203189C
:1007B000EC2BD4020318EC2BD40AD30A4F08D2072F
:1007C0005008D107031C032CD20A031D032CD30AA3
:1007D000031D032CD40A032C4E088038D3020318BF
:1007E000022C0130D4020318022CD40A4E0880389F
:1007F000D3074F08D207031CE02BD30A031DE02BBD
:10080000D40AE02B7A14D50B062C112C0310D10D31
:10081000D20DD30DD40D0310FA0DF90DF80DD60D30
:10082000BD2B561C192C0310F80CF90CFA0CD60C25
:100830001C2CF70303195E2CD61B452C0310D10D7D
:10084000D20DD30DD40D5008D1020318312C013034
:10085000D2020318312CD3020318312CD402031C0A
:10086000542C4F08D20203183C2C0130D302031839
:100870003C2CD402031C542C4E088038D30203189D
:10088000452C0130D402031C542CFA0A031D542CAD
:10089000F90A031D542CF80A031D542CF70A0319F6
:1008A0005E2CF80CF90CFA0C4A08D5004E08D50657
:1008B000D51F5C2CF817622CF813622CF701F80195
:1008C000F901FA01CC01CB014830CA008530C900DA
:1008D0007A08D0007908CF007808CE007708CD00DC
:1008E000B1227A08C8007908C7007808C6007708DE
:1008F000C5004808CC004708CB004608CA00450898
:10090000C900D001CF014830CE008530CD00B122E2
:100910007A08C8007908C7007808C6007708C500BB
:100920008E30F7004508F7024608F9004708F8003E
:10093000F917F7080319A72C0310F908031DA32CB6
:10094000F8080319A72CF90CF80CF70B9C2CC61F00
:10095000AE2CF809F909F80A0319F90A7908B30065
:100960007808B2003308C6003208C5004608CC003B
:100970004508CB000330CE00E830CD0026237808B0
:10098000A6004608CC004508CB000330CE00E83076
:10099000CD0026237708C9007A08CA00CC00770862
:1009A000CB00CE016430CD0026237808A80046088D
:1009B000CC004508CB00CE016430CD00262377085B
:1009C000C7007A08C8004808CC004708CB00CE0111
:1009D0000A30CD0026237808AB003030A607A807E0
:1009E000AB078A150A12182A0130C5000230C6006A
:1009F0004C21043003178D0000308F0003138A212F
:100A00002608C4005E212808C4005E2108300317B0
:100A10008D0000308F0003138A212B08C4005E2153
:100A2000093003178D0000308F0003138A2108005E
:1010000003081F398300BF01BE01FF30C0008316F3
:101010001F149F141F159F1107309C008313831208
:10102000A001A101A201A301A40125108A11F028A9
:101030008A158A112E298A150F308316860081138E
:101040000D308312C5000130C6008A114C218A156B
:101050000C3003178D0000308F008A1103138A2192
:101060008A150130C5000230C6008A114C218A154C
:10107000133003178D0000308F008A1103138A216B
:101080008A151030C100FA30C6008A1189208A15ED
:10109000C10B4328193003178D0000308F008A11CF
:1010A00003138A218A15223003178D0000308F0028
:1010B0008A1103138A218A158A11E0218A1578087A
:1010C000AC008A1109228A15BB012D08BA0007302D
:1010D000C5000230C6008A114C218A152A08C400B6
:1010E0008A115E218A159630C6008A1189208A15D8
:1010F000A51C7B287C285C282030AA00A5108A111A
:10110000E0218A157808AC008A1109228A152D0879
:10111000A7000830C5000230C6008A114C218A158C
:101120002A08C4008A115E218A159630C6008A11E9
:1011300089208A15A51C9D289E287F282030AA007A
:10114000A5108A11E0218A157808AC008A110922BD
:101150008A152D08A9000930C5000230C6008A1181
:101160004C218A15263003178D0000308F008A111C
:1011700003138A218A152A08C4008A115E218A1560
:101180009630C6008A1189208A15A51CC828C9284E
:10119000A1282030AA00A5103B08C2003A08C100CF
:1011A000C4016430C3008A1177228A157908C2000D
:1011B0007808C1002708C3000A30C4008A118C22B5
:1011C0008A157808C1070318C20A29084107B80020
:1011D0004208B9000318B90A273003178D00003000
:1011E0008F008A1103138A218A15303003178D006E
:1011F00000308F008A1103138A218A158A11E02199
:101200008A157808AC008A1109228A15BD012D08BB
:10121000BC000730C5000230C6008A114C218A1577
:101220002A08C4008A115E218A159630C6008A11E8
:1012300089208A15A51C1D291E29FE28A5102030ED
:10124000AA008A11E0218A157808AC008A110922C7
:101250008A152D08AE000830C5000230C6008A117C
:101260004C218A152A08C4008A115E218A159630FD
:10127000C6008A1189208A15A51C3F2940292129E9
:10128000A5102030AA008A11E0218A157808AC0048
:101290008A1109228A152D08AF000930C5000230D5
:1012A000C6008A114C218A15343003178D00003096
:1012B0008F008A1103138A218A152A08C4008A1113
:1012C0005E218A159630C6008A1189208A15A51CD0
:1012D0006A296B2943293D08C2003C08C100C401AA
:1012E0006430C3008A1177228A157908C200780811
:1012F000C1002E08C3000A30C4008A118C228A154E
:101300007808C1070318C20A2F084107B60042082F
:10131000B7000318B70A353003178D0000308F006F
:101320008A1103138A218A15BA08031D9E29BB0856
:10133000031D9E293030BA00BB01A2293030BA0704
:101340000318BB0A3030A7073A08C4008A115E218F
:101350008A152708C4008A115E218A15A908031D71
:10136000B4292030A900BF293030A907383003172D
:101370008D0000308F008A1103138A218A152908F5
:10138000C4008A115E218A150930C5000130C600EB
:101390008A114C218A15393003178D0000308F00D7
:1013A0008A1103138A218A15BC08031DDE29BD0892
:1013B000031DDE292030BC00BD01E2293030BC070E
:1013C0000318BD0A3030AE073C08C4008A115E2104
:1013D0008A152E08C4008A115E218A15AF08031DE4
:1013E000F4292030AF00FF293030AF073C3003171D
:1013F0008D0000308F008A1103138A218A152F086F
:10140000C4008A115E218A15C830C6008A1189205D
:101410008A151F151F190A2A1E08F90083161E08AF
:10142000F80079088312B1007808B0008A114B2BBC
:101430008A153308CC003208CB00CE010A30CD002B
:101440008A1126238A157908B5007808B400350872
:101450003902031C522A031D312A34083802031CA6
:10146000522A0130C5000230C6008A114C218A156B
:101470008A11F4248A150D30C5000230C6008A1185
:101480004C218A153D3003178D0000308F008A11E2
:1014900003138A218A15401240088316870083129D
:1014A0000716D42A39083502031C982A031D5C2A22
:1014B000340838020318982A35083702031C982A82
:1014C000031D662A360834020318982A8A11F42468
:1014D0008A150D30C5000230C6008A114C218A15CC
:1014E000403003178D0000308F008A1103138A21CA
:1014F0008A15401240088316870083120712401095
:1015000040088316870083120714C0104008831612
:1015100087008312871440114008831687008312C6
:101520000711C01140088316870083128711D42A3F
:1015300037083502031CD42A031DA22A36083402B8
:10154000031CD42A0130C5000230C6008A114C2188
:101550008A158A11F4248A150D30C5000230C600A0
:101560008A114C218A15433003178D0000308F00FB
:101570008A1103138A218A154010400883168700B8
:1015800083120714C0104008831687008312871047
:10159000401140088316870083120715C0114008C8
:1015A000831687008312871138083602031D4D2BDE
:1015B00039083702031D4D2B401040088316870061
:1015C00083120710C010400883168700831287100B
:1015D000401140088316870083120711C01140088C
:1015E00083168700831287114012400883168700F4
:1015F000831207120D30C5000130C6008A114C213C
:101600008A15463003178D0000308F008A110313AE
:101610008A218A150130C5000230C6008A114C218A
:101620008A154E3003178D0000308F008A11031386
:101630008A218A151030C100FA30C6008A1189202B
:101640008A15C10B1C2B0D30C5000130C6008A1154
:101650004C218A15563003178D0000308F008A11F7
:1016600003138A218A150130C5000230C6008A1191
:101670004C218A155E3003178D0000308F008A11CF
:1016800003138A218A151430C100FA30C6008A116A
:1016900089208A15C10B452BC92B37083902031C39
:1016A000C82B031D572B380836020318C82B4010CF
:1016B00040088316870083120710C0104008831665
:1016C0008700831287104011400883168700831219
:1016D0000711C0114008831687008312871140123A
:1016E000400883168700831207120D30C5000130B1
:1016F000C6008A114C218A15673003178D0000300F
:101700008F008A1103138A218A150130C500023027
:10171000C6008A114C218A15703003178D000030E5
:101720008F008A1103138A218A151030C100FA3004
:10173000C6008A1189208A15C10B972B0D30C50070
:101740000130C6008A114C218A15783003178D00AC
:1017500000308F008A1103138A218A150130C500D9
:101760000230C6008A114C218A15803003178D0083
:1017700000308F008A1103138A218A151430C100AA
:10178000FA30C6008A1189208A15C10BC02BC92BDB
:08179000042A831620286300DF
:02400E00713F00
:00000001FF
;PIC16F877A
;CRC=4F35  CREATED="22-jun.-21 15:06"
